S01500006D6F746F726B6F6E74726F6C6C2E7372656369
S113000045C0000053C0000051C000004FC00000B4
S11300104DC000004BC0000049C0000047C00000B4
S113002045C0000043C0000041C000003FC00000C4
S11300303DC000003BC0000039C0000037C00000D4
S113004035C0000033C0000031C000002FC00000E4
S11300502DC000002BC0000029C0000027C00000F4
S113006025C0000023C0000021C000001FC0000004
S11300701DC000001BC0000019C0000017C0000014
S113008015C0000013C0000011C0000011241FBEE1
S1130090CFEFD0E4DEBFCDBF21E0A0E0B1E001C0EE
S11300A01D92AA31B207E1F7F8D0B1C3A9CF282F26
S11300B0392F30938B0020938A000895282F392FED
S11300C03093890020938800089580E090E0EFDF6A
S11300D080E090E0F3CF8230910584F021E030E0BD
S11300E04FEF51EE64E0415050406040E1F700C0F2
S11300F000002F5F3F4F2817390791F70895CF92DB
S1130100DF92EF92FF92CF93DF93C0901601D090CD
S11301101701E0901801F090190120E030E0A901E6
S1130120C701B601BED18823ECF4C4E1D5E0D09375
S11301300901C0930801609100017091010180914F
S11301400201909103011ED2CE01861B9109909366
S11301500F0180930E01ABDF80910801909109019A
S1130160ADDF35C020E030E0A901C701B601E8D217
S11301701816ECF4C4E1D5E0D0930F01C0930E013E
S1130180609100017091010180910201909103013D
S1130190F9D1CE01861B910990930901809308013E
S11301A08DDF80910E0190910F0181DF10C020E05E
S11301B030E0A901C701B60174D1811107C084E1FF
S11301C095E07CDF84E195E072DF01C07EDFDF91A2
S11301D0CF91FF90EF90DF90CF9008954F925F9270
S11301E06F927F928F929F92AF92BF92CF92DF9243
S11301F0EF92FF926B017C0149015A0120910401A5
S11302003091050140910601509107019DD2B5D16D
S113021077231CF4719561957109882777FD809582
S1130220982FDED12B013C0120911601309117014A
S11302304091180150911901C701B601CDD0A50113
S1130240940133D120911201309113014091140192
S11302505091150179D29B01AC01C301B201BDD00B
S11302606093000170930101809302019093030154
S1130270C0921601D0921701E0921801F092190170
S1130280FF90EF90DF90CF90BF90AF909F908F90B2
S11302907F906F905F904F90089583E38AB981E0D7
S11302A08BB987E0809387008FEC80938600A0E869
S11302B0B0E08C9182608C93E1E8F0E08081886109
S11302C080838C91806A8C938081826080838CEBA4
S11302D092E0EDDE84E195E0F1DE84E190E0FBDE86
S11302E01092160110921701109218011092190120
S11302F080E090E0A0E2B1E48093040190930501D2
S1130300A0930601B093070180E090E0A0ECB0E474
S11303108093120190931301A0931401B0931501DB
S113032020E030E040E050E460E070E086E193E4F7
S113033055DFE5DE85E090E0CEDE20E030E040E011
S11303405FE360E070E080EA92E448DFD8DE85E0B5
S113035090E0C1DE20E030E040E05FE360E070E088
S113036080EF91E43BDFCBDE85E090E0B4DE20E07B
S113037030E040E05FE360E070E080EA91EC2EDF83
S1130380BEDE85E090E0A7DE20E030E040E05FE301
S113039060E070E080E291E421DFB1DE85E090E08E
S11303A09ADE20E030E040E05FE360E070E080EA65
S11303B090EC14DFA4DE85E090E08DDE20E030E0F8
S11303C040E05FE360E070E0CB0108DF98DE8AE0A4
S11303D090E081DE7ADEFFCF5058BB27AA270ED0EB
S11303E075C166D130F06BD120F031F49F3F11F428
S11303F01EF45BC10EF4E095E7FB51C1E92F77D100
S113040080F3BA17620773078407950718F071F42D
S11304109EF58FC10EF4E0950B2EBA2FA02D0B0183
S1130420B90190010C01CA01A0011124FF27591B35
S113043099F0593F50F4503E68F11A16F040A22F3B
S1130440232F342F4427585FF3CF469537952795AC
S1130450A795F0405395C9F77EF41F16BA0B620BAB
S1130460730B840BBAF09150A1F0FF0FBB1F661FF2
S1130470771F881FC2F70EC0BA0F621F731F841F35
S113048048F4879577956795B795F7959E3F08F05B
S1130490B3CF9395880F08F09927EE0F979587951A
S11304A00895D9D008F481E008950CD00FC107D184
S11304B040F0FED030F021F45F3F19F0F0C051114C
S11304C039C1F3C014D198F39923C9F35523B1F377
S11304D0951B550BBB27AA2762177307840738F0AF
S11304E09F5F5F4F220F331F441FAA1FA9F333D00E
S11304F00E2E3AF0E0E830D091505040E695001CC2
S1130500CAF729D0FE2F27D0660F771F881FBB1F7D
S1130510261737074807AB07B0E809F0BB0B802D57
S1130520BF01FF2793585F4F2AF09E3F510568F0A3
S1130530B6C000C15F3FECF3983EDCF38695779537
S11305406795B795F7959F5FC9F7880F911D9695A5
S1130550879597F90895E1E0660F771F881FBB1F01
S1130560621773078407BA0720F0621B730B840BAE
S1130570BA0BEE1F88F7E095089504D06894B11182
S1130580D9C00895BCD088F09F5790F0B92F99270F
S1130590B751A0F0D1F0660F771F881F991F1AF08A
S11305A0BA95C9F712C0B13081F0C3D0B1E0089553
S11305B0C0C0672F782F8827B85F39F0B93FCCF3D4
S11305C0869577956795B395D9F73EF49095809580
S11305D0709561957F4F8F4F9F4F0895E89409C0A0
S11305E097FB3EF490958095709561957F4F8F4F62
S11305F09F4F9923A9F0F92F96E9BB279395F69578
S1130600879577956795B795F111F8CFFAF4BB0FF5
S113061011F460FF1BC06F5F7F4F8F4F9F4F16C059
S1130620882311F096E911C0772321F09EE8872FE3
S1130630762F05C0662371F096E8862F70E060E09F
S11306402AF09A95660F771F881FDAF7880F969518
S1130650879597F90895990F0008550FAA0BE0E8BC
S1130660FEEF16161706E807F907C0F01216130670
S1130670E407F50798F0621B730B840B950B39F4B0
S11306800A2661F0232B242B252B21F408950A2616
S113069009F4A140A6958FEF811D811D089597F956
S11306A09F6780E870E060E008959FEF80EC089514
S11306B000240A941616170618060906089500243D
S11306C00A9412161306140605060895092E0394B7
S11306D0000C11F4882352F0BB0F40F4BF2B11F42B
S11306E060FF04C06F5F7F4F8F4F9F4F089557FD8A
S11306F09058440F551F59F05F3F71F04795880F8C
S113070097FB991F61F09F3F79F087950895121622
S113071013061406551FF2CF4695F1DF08C01616CE
S113072017061806991FF1CF86957105610508947F
S11307300895E894BB2766277727CB0197F9089596
S11307408ADF08F48FEF08950BD0C0CFB1DF28F013
S1130750B6DF18F0952309F0A2CFA7CF1124EACF72
S1130760C6DFA0F3959FD1F3950F50E0551F629F0C
S1130770F001729FBB27F00DB11D639FAA27F00DF6
S1130780B11DAA1F649F6627B00DA11D661F829F1D
S11307902227B00DA11D621F739FB00DA11D621F02
S11307A0839FA00D611D221F749F3327A00D611D1F
S11307B0231F849F600D211D822F762F6A2F112401
S11307C09F5750408AF0E1F088234AF0EE0FFF1F54
S11307D0BB1F661F771F881F91505040A9F79E3F8B
S11307E0510570F05CCFA6CF5F3FECF3983EDCF38D
S11307F0869577956795B795F795E7959F5FC1F7C8
S1130800FE2B880F911D9695879597F90895F89476
S1050810FFCF14
S9030000FC
